{
  "_format": "hh-sol-artifact-1",
  "contractName": "InsightPortal",
  "sourceName": "contracts/InsightPortal.sol",
  "abi": [
    {
      "inputs": [],
      "stateMutability": "nonpayable",
      "type": "constructor"
    },
    {
      "inputs": [],
      "name": "getInsights",
      "outputs": [
        {
          "internalType": "string[]",
          "name": "",
          "type": "string[]"
        }
      ],
      "stateMutability": "view",
      "type": "function"
    },
    {
      "inputs": [
        {
          "internalType": "string",
          "name": "_insight",
          "type": "string"
        }
      ],
      "name": "giveInsight",
      "outputs": [],
      "stateMutability": "nonpayable",
      "type": "function"
    }
  ],
  "bytecode": "0x60806040523480156200001157600080fd5b506200005d6040518060400160405280601281526020017f436f6e747261637420496e6974696174656400000000000000000000000000008152506200006360201b620004741760201c565b620001f7565b62000103816040516024016200007a919062000170565b6040516020818303038152906040527f41304fac000000000000000000000000000000000000000000000000000000007bffffffffffffffffffffffffffffffffffffffffffffffffffffffff19166020820180517bffffffffffffffffffffffffffffffffffffffffffffffffffffffff83818316178352505050506200010660201b60201c565b50565b60008151905060006a636f6e736f6c652e6c6f679050602083016000808483855afa5050505050565b60006200013c8262000194565b6200014881856200019f565b93506200015a818560208601620001b0565b6200016581620001e6565b840191505092915050565b600060208201905081810360008301526200018c81846200012f565b905092915050565b600081519050919050565b600082825260208201905092915050565b60005b83811015620001d0578082015181840152602081019050620001b3565b83811115620001e0576000848401525b50505050565b6000601f19601f8301169050919050565b610b5580620002076000396000f3fe608060405234801561001057600080fd5b50600436106100365760003560e01c80638c1cab5b1461003b57806399cd680414610059575b600080fd5b610043610075565b6040516100509190610870565b60405180910390f35b610073600480360381019061006e91906106e0565b61037f565b005b60606100b56040518060400160405280601581526020017f43757272656e7420696e697367687473206172653a0000000000000000000000815250610474565b60005b6001805490508110156102a75761029360018281548110610102577f4e487b7100000000000000000000000000000000000000000000000000000000600052603260045260246000fd5b9060005260206000200160009054906101000a900473ffffffffffffffffffffffffffffffffffffffff166040518060400160405280600681526020017f736169643a200000000000000000000000000000000000000000000000000000815250600080600186815481106101a0577f4e487b7100000000000000000000000000000000000000000000000000000000600052603260045260246000fd5b9060005260206000200160009054906101000a900473ffffffffffffffffffffffffffffffffffffffff1673ffffffffffffffffffffffffffffffffffffffff1673ffffffffffffffffffffffffffffffffffffffff168152602001908152602001600020805461021090610a4f565b80601f016020809104026020016040519081016040528092919081815260200182805461023c90610a4f565b80156102895780601f1061025e57610100808354040283529160200191610289565b820191906000526020600020905b81548152906001019060200180831161026c57829003601f168201915b505050505061050d565b6001816102a0919061097b565b90506100b8565b506002805480602002602001604051908101604052809291908181526020016000905b828210156103765783829060005260206000200180546102e990610a4f565b80601f016020809104026020016040519081016040528092919081815260200182805461031590610a4f565b80156103625780601f1061033757610100808354040283529160200191610362565b820191906000526020600020905b81548152906001019060200180831161034557829003601f168201915b5050505050815260200190600101906102ca565b50505050905090565b6001339080600181540180825580915050600190039060005260206000200160009091909190916101000a81548173ffffffffffffffffffffffffffffffffffffffff021916908373ffffffffffffffffffffffffffffffffffffffff16021790555060028190806001815401808255809150506001900390600052602060002001600090919091909150908051906020019061041d9291906105d5565b50806000803373ffffffffffffffffffffffffffffffffffffffff1673ffffffffffffffffffffffffffffffffffffffff16815260200190815260200160002090805190602001906104709291906105d5565b5050565b61050a816040516024016104889190610892565b6040516020818303038152906040527f41304fac000000000000000000000000000000000000000000000000000000007bffffffffffffffffffffffffffffffffffffffffffffffffffffffff19166020820180517bffffffffffffffffffffffffffffffffffffffffffffffffffffffff83818316178352505050506105ac565b50565b6105a78383836040516024016105259392919061082b565b6040516020818303038152906040527ffb772265000000000000000000000000000000000000000000000000000000007bffffffffffffffffffffffffffffffffffffffffffffffffffffffff19166020820180517bffffffffffffffffffffffffffffffffffffffffffffffffffffffff83818316178352505050506105ac565b505050565b60008151905060006a636f6e736f6c652e6c6f679050602083016000808483855afa5050505050565b8280546105e190610a4f565b90600052602060002090601f016020900481019282610603576000855561064a565b82601f1061061c57805160ff191683800117855561064a565b8280016001018555821561064a579182015b8281111561064957825182559160200191906001019061062e565b5b509050610657919061065b565b5090565b5b8082111561067457600081600090555060010161065c565b5090565b600061068b610686846108e5565b6108b4565b9050828152602081018484840111156106a357600080fd5b6106ae848285610a0d565b509392505050565b600082601f8301126106c757600080fd5b81356106d7848260208601610678565b91505092915050565b6000602082840312156106f257600080fd5b600082013567ffffffffffffffff81111561070c57600080fd5b610718848285016106b6565b91505092915050565b600061072d83836107b9565b905092915050565b61073e816109d1565b82525050565b600061074f82610925565b6107598185610948565b93508360208202850161076b85610915565b8060005b858110156107a757848403895281516107888582610721565b94506107938361093b565b925060208a0199505060018101905061076f565b50829750879550505050505092915050565b60006107c482610930565b6107ce8185610959565b93506107de818560208601610a1c565b6107e781610b0e565b840191505092915050565b60006107fd82610930565b610807818561096a565b9350610817818560208601610a1c565b61082081610b0e565b840191505092915050565b60006060820190506108406000830186610735565b818103602083015261085281856107f2565b9050818103604083015261086681846107f2565b9050949350505050565b6000602082019050818103600083015261088a8184610744565b905092915050565b600060208201905081810360008301526108ac81846107f2565b905092915050565b6000604051905081810181811067ffffffffffffffff821117156108db576108da610adf565b5b8060405250919050565b600067ffffffffffffffff821115610900576108ff610adf565b5b601f19601f8301169050602081019050919050565b6000819050602082019050919050565b600081519050919050565b600081519050919050565b6000602082019050919050565b600082825260208201905092915050565b600082825260208201905092915050565b600082825260208201905092915050565b600061098682610a03565b915061099183610a03565b9250827fffffffffffffffffffffffffffffffffffffffffffffffffffffffffffffffff038211156109c6576109c5610a81565b5b828201905092915050565b60006109dc826109e3565b9050919050565b600073ffffffffffffffffffffffffffffffffffffffff82169050919050565b6000819050919050565b82818337600083830152505050565b60005b83811015610a3a578082015181840152602081019050610a1f565b83811115610a49576000848401525b50505050565b60006002820490506001821680610a6757607f821691505b60208210811415610a7b57610a7a610ab0565b5b50919050565b7f4e487b7100000000000000000000000000000000000000000000000000000000600052601160045260246000fd5b7f4e487b7100000000000000000000000000000000000000000000000000000000600052602260045260246000fd5b7f4e487b7100000000000000000000000000000000000000000000000000000000600052604160045260246000fd5b6000601f19601f830116905091905056fea2646970667358221220ebe381e297e25b781cc74e70c4c60b23f6ccb3413e45bb6aff3d53dbb564246764736f6c63430008000033",
  "linkReferences": {},
  "deployedLinkReferences": {}
}