{
  "_format": "hh-sol-artifact-1",
  "contractName": "InsightPortal",
  "sourceName": "contracts/InsightPortal.sol",
  "abi": [
    {
      "inputs": [],
      "stateMutability": "nonpayable",
      "type": "constructor"
    },
    {
      "inputs": [],
      "name": "getInsights",
      "outputs": [
        {
          "components": [
            {
              "internalType": "address",
              "name": "sender",
              "type": "address"
            },
            {
              "internalType": "string",
              "name": "insight",
              "type": "string"
            }
          ],
          "internalType": "struct InsightPortal.Insight[]",
          "name": "",
          "type": "tuple[]"
        }
      ],
      "stateMutability": "view",
      "type": "function"
    },
    {
      "inputs": [
        {
          "internalType": "string",
          "name": "_insight",
          "type": "string"
        }
      ],
      "name": "giveInsight",
      "outputs": [],
      "stateMutability": "nonpayable",
      "type": "function"
    }
  ],
  "bytecode": "0x60806040523480156200001157600080fd5b506200005d6040518060400160405280601281526020017f436f6e747261637420496e6974696174656400000000000000000000000000008152506200006360201b620004af1760201c565b620001f7565b62000103816040516024016200007a919062000170565b6040516020818303038152906040527f41304fac000000000000000000000000000000000000000000000000000000007bffffffffffffffffffffffffffffffffffffffffffffffffffffffff19166020820180517bffffffffffffffffffffffffffffffffffffffffffffffffffffffff83818316178352505050506200010660201b60201c565b50565b60008151905060006a636f6e736f6c652e6c6f679050602083016000808483855afa5050505050565b60006200013c8262000194565b6200014881856200019f565b93506200015a818560208601620001b0565b6200016581620001e6565b840191505092915050565b600060208201905081810360008301526200018c81846200012f565b905092915050565b600081519050919050565b600082825260208201905092915050565b60005b83811015620001d0578082015181840152602081019050620001b3565b83811115620001e0576000848401525b50505050565b6000601f19601f8301169050919050565b610bdc80620002076000396000f3fe608060405234801561001057600080fd5b50600436106100365760003560e01c80638c1cab5b1461003b57806399cd680414610059575b600080fd5b610043610075565b60405161005091906108f7565b60405180910390f35b610073600480360381019061006e919061071b565b61039d565b005b60606100b56040518060400160405280601581526020017f43757272656e7420696e697367687473206172653a00000000000000000000008152506104af565b60005b6001805490508110156102575761024360018281548110610102577f4e487b7100000000000000000000000000000000000000000000000000000000600052603260045260246000fd5b906000526020600020906002020160000160009054906101000a900473ffffffffffffffffffffffffffffffffffffffff166040518060400160405280600681526020017f736169643a200000000000000000000000000000000000000000000000000000815250600184815481106101a4577f4e487b7100000000000000000000000000000000000000000000000000000000600052603260045260246000fd5b906000526020600020906002020160010180546101c090610ad6565b80601f01602080910402602001604051908101604052809291908181526020018280546101ec90610ad6565b80156102395780601f1061020e57610100808354040283529160200191610239565b820191906000526020600020905b81548152906001019060200180831161021c57829003601f168201915b5050505050610548565b6001816102509190610a02565b90506100b8565b506001805480602002602001604051908101604052809291908181526020016000905b8282101561039457838290600052602060002090600202016040518060400160405290816000820160009054906101000a900473ffffffffffffffffffffffffffffffffffffffff1673ffffffffffffffffffffffffffffffffffffffff1673ffffffffffffffffffffffffffffffffffffffff16815260200160018201805461030390610ad6565b80601f016020809104026020016040519081016040528092919081815260200182805461032f90610ad6565b801561037c5780601f106103515761010080835404028352916020019161037c565b820191906000526020600020905b81548152906001019060200180831161035f57829003601f168201915b5050505050815250508152602001906001019061027a565b50505050905090565b600160405180604001604052803373ffffffffffffffffffffffffffffffffffffffff16815260200183815250908060018154018082558091505060019003906000526020600020906002020160009091909190915060008201518160000160006101000a81548173ffffffffffffffffffffffffffffffffffffffff021916908373ffffffffffffffffffffffffffffffffffffffff1602179055506020820151816001019080519060200190610456929190610610565b505050806000803373ffffffffffffffffffffffffffffffffffffffff1673ffffffffffffffffffffffffffffffffffffffff16815260200190815260200160002090805190602001906104ab929190610610565b5050565b610545816040516024016104c39190610919565b6040516020818303038152906040527f41304fac000000000000000000000000000000000000000000000000000000007bffffffffffffffffffffffffffffffffffffffffffffffffffffffff19166020820180517bffffffffffffffffffffffffffffffffffffffffffffffffffffffff83818316178352505050506105e7565b50565b6105e2838383604051602401610560939291906108b2565b6040516020818303038152906040527ffb772265000000000000000000000000000000000000000000000000000000007bffffffffffffffffffffffffffffffffffffffffffffffffffffffff19166020820180517bffffffffffffffffffffffffffffffffffffffffffffffffffffffff83818316178352505050506105e7565b505050565b60008151905060006a636f6e736f6c652e6c6f679050602083016000808483855afa5050505050565b82805461061c90610ad6565b90600052602060002090601f01602090048101928261063e5760008555610685565b82601f1061065757805160ff1916838001178555610685565b82800160010185558215610685579182015b82811115610684578251825591602001919060010190610669565b5b5090506106929190610696565b5090565b5b808211156106af576000816000905550600101610697565b5090565b60006106c66106c18461096c565b61093b565b9050828152602081018484840111156106de57600080fd5b6106e9848285610a94565b509392505050565b600082601f83011261070257600080fd5b81356107128482602086016106b3565b91505092915050565b60006020828403121561072d57600080fd5b600082013567ffffffffffffffff81111561074757600080fd5b610753848285016106f1565b91505092915050565b60006107688383610875565b905092915050565b61077981610a58565b82525050565b61078881610a58565b82525050565b6000610799826109ac565b6107a381856109cf565b9350836020820285016107b58561099c565b8060005b858110156107f157848403895281516107d2858261075c565b94506107dd836109c2565b925060208a019950506001810190506107b9565b50829750879550505050505092915050565b600061080e826109b7565b61081881856109e0565b9350610828818560208601610aa3565b61083181610b95565b840191505092915050565b6000610847826109b7565b61085181856109f1565b9350610861818560208601610aa3565b61086a81610b95565b840191505092915050565b600060408301600083015161088d6000860182610770565b50602083015184820360208601526108a58282610803565b9150508091505092915050565b60006060820190506108c7600083018661077f565b81810360208301526108d9818561083c565b905081810360408301526108ed818461083c565b9050949350505050565b60006020820190508181036000830152610911818461078e565b905092915050565b60006020820190508181036000830152610933818461083c565b905092915050565b6000604051905081810181811067ffffffffffffffff8211171561096257610961610b66565b5b8060405250919050565b600067ffffffffffffffff82111561098757610986610b66565b5b601f19601f8301169050602081019050919050565b6000819050602082019050919050565b600081519050919050565b600081519050919050565b6000602082019050919050565b600082825260208201905092915050565b600082825260208201905092915050565b600082825260208201905092915050565b6000610a0d82610a8a565b9150610a1883610a8a565b9250827fffffffffffffffffffffffffffffffffffffffffffffffffffffffffffffffff03821115610a4d57610a4c610b08565b5b828201905092915050565b6000610a6382610a6a565b9050919050565b600073ffffffffffffffffffffffffffffffffffffffff82169050919050565b6000819050919050565b82818337600083830152505050565b60005b83811015610ac1578082015181840152602081019050610aa6565b83811115610ad0576000848401525b50505050565b60006002820490506001821680610aee57607f821691505b60208210811415610b0257610b01610b37565b5b50919050565b7f4e487b7100000000000000000000000000000000000000000000000000000000600052601160045260246000fd5b7f4e487b7100000000000000000000000000000000000000000000000000000000600052602260045260246000fd5b7f4e487b7100000000000000000000000000000000000000000000000000000000600052604160045260246000fd5b6000601f19601f830116905091905056fea26469706673582212206e870ca96b28bd126beb88e4c3b1448cefa1a16ad1bb4e2c49e7bb0dafbbd87e64736f6c63430008000033",
  "linkReferences": {},
  "deployedLinkReferences": {}
}